{
  "_format": "hh-sol-artifact-1",
  "contractName": "BuyGrocery",
  "sourceName": "contracts/BuyGrocery.sol",
  "abi": [
    {
      "inputs": [],
      "stateMutability": "nonpayable",
      "type": "constructor"
    },
    {
      "anonymous": false,
      "inputs": [
        {
          "indexed": false,
          "internalType": "string",
          "name": "item",
          "type": "string"
        },
        {
          "indexed": false,
          "internalType": "uint256",
          "name": "cost",
          "type": "uint256"
        }
      ],
      "name": "NewGroceries",
      "type": "event"
    },
    {
      "anonymous": false,
      "inputs": [
        {
          "indexed": true,
          "internalType": "address",
          "name": "from",
          "type": "address"
        },
        {
          "indexed": false,
          "internalType": "uint256",
          "name": "timestamp",
          "type": "uint256"
        },
        {
          "indexed": false,
          "internalType": "string",
          "name": "name",
          "type": "string"
        },
        {
          "indexed": false,
          "internalType": "string",
          "name": "message",
          "type": "string"
        },
        {
          "indexed": false,
          "internalType": "string",
          "name": "item",
          "type": "string"
        }
      ],
      "name": "NewMemo",
      "type": "event"
    },
    {
      "inputs": [
        {
          "internalType": "string",
          "name": "_item",
          "type": "string"
        },
        {
          "internalType": "uint256",
          "name": "_cost",
          "type": "uint256"
        }
      ],
      "name": "addGrocery",
      "outputs": [],
      "stateMutability": "nonpayable",
      "type": "function"
    },
    {
      "inputs": [
        {
          "internalType": "string",
          "name": "_name",
          "type": "string"
        },
        {
          "internalType": "string",
          "name": "_message",
          "type": "string"
        },
        {
          "internalType": "uint256",
          "name": "_item",
          "type": "uint256"
        }
      ],
      "name": "buyGrocery",
      "outputs": [],
      "stateMutability": "payable",
      "type": "function"
    },
    {
      "inputs": [],
      "name": "getGrocery",
      "outputs": [
        {
          "components": [
            {
              "internalType": "string",
              "name": "item",
              "type": "string"
            },
            {
              "internalType": "uint256",
              "name": "cost",
              "type": "uint256"
            }
          ],
          "internalType": "struct BuyGrocery.Groceries[]",
          "name": "",
          "type": "tuple[]"
        }
      ],
      "stateMutability": "view",
      "type": "function"
    },
    {
      "inputs": [],
      "name": "getMemos",
      "outputs": [
        {
          "components": [
            {
              "internalType": "address",
              "name": "from",
              "type": "address"
            },
            {
              "internalType": "uint256",
              "name": "timestamp",
              "type": "uint256"
            },
            {
              "internalType": "string",
              "name": "name",
              "type": "string"
            },
            {
              "internalType": "string",
              "name": "message",
              "type": "string"
            },
            {
              "internalType": "string",
              "name": "item",
              "type": "string"
            }
          ],
          "internalType": "struct BuyGrocery.Memo[]",
          "name": "",
          "type": "tuple[]"
        }
      ],
      "stateMutability": "view",
      "type": "function"
    },
    {
      "inputs": [],
      "name": "withdrawTips",
      "outputs": [],
      "stateMutability": "nonpayable",
      "type": "function"
    }
  ],
  "bytecode": "0x60806040523480156200001157600080fd5b50336000806101000a81548173ffffffffffffffffffffffffffffffffffffffff021916908373ffffffffffffffffffffffffffffffffffffffff160217905550600260405180604001604052806040518060400160405280600381526020017f54697000000000000000000000000000000000000000000000000000000000008152508152602001600081525090806001815401808255809150506001900390600052602060002090600202016000909190919091506000820151816000019081620000df919062000407565b50602082015181600101555050600260405180604001604052806040518060400160405280600681526020017f436f666665650000000000000000000000000000000000000000000000000000815250815260200161015a815250908060018154018082558091505060019003906000526020600020906002020160009091909190915060008201518160000190816200017a919062000407565b50602082015181600101555050620004ee565b600081519050919050565b7f4e487b7100000000000000000000000000000000000000000000000000000000600052604160045260246000fd5b7f4e487b7100000000000000000000000000000000000000000000000000000000600052602260045260246000fd5b600060028204905060018216806200020f57607f821691505b602082108103620002255762000224620001c7565b5b50919050565b60008190508160005260206000209050919050565b60006020601f8301049050919050565b600082821b905092915050565b6000600883026200028f7fffffffffffffffffffffffffffffffffffffffffffffffffffffffffffffffff8262000250565b6200029b868362000250565b95508019841693508086168417925050509392505050565b6000819050919050565b6000819050919050565b6000620002e8620002e2620002dc84620002b3565b620002bd565b620002b3565b9050919050565b6000819050919050565b6200030483620002c7565b6200031c6200031382620002ef565b8484546200025d565b825550505050565b600090565b6200033362000324565b62000340818484620002f9565b505050565b5b8181101562000368576200035c60008262000329565b60018101905062000346565b5050565b601f821115620003b75762000381816200022b565b6200038c8462000240565b810160208510156200039c578190505b620003b4620003ab8562000240565b83018262000345565b50505b505050565b600082821c905092915050565b6000620003dc60001984600802620003bc565b1980831691505092915050565b6000620003f78383620003c9565b9150826002028217905092915050565b62000412826200018d565b67ffffffffffffffff8111156200042e576200042d62000198565b5b6200043a8254620001f6565b620004478282856200036c565b600060209050601f8311600181146200047f57600084156200046a578287015190505b620004768582620003e9565b865550620004e6565b601f1984166200048f866200022b565b60005b82811015620004b95784890151825560018201915060208501945060208101905062000492565b86831015620004d95784890151620004d5601f891682620003c9565b8355505b6001600288020188555050505b505050505050565b61155f80620004fe6000396000f3fe60806040526004361061004a5760003560e01c8063334804e31461004f5780633aaa74b21461007a578063865c51721461009157806398566372146100bc578063d6e46556146100e5575b600080fd5b34801561005b57600080fd5b50610064610101565b6040516100719190610ade565b60405180910390f35b34801561008657600080fd5b5061008f6101fc565b005b34801561009d57600080fd5b506100a66102a8565b6040516100b39190610c87565b60405180910390f35b3480156100c857600080fd5b506100e360048036038101906100de9190610e1e565b61051d565b005b6100ff60048036038101906100fa9190610e7a565b61064a565b005b60606002805480602002602001604051908101604052809291908181526020016000905b828210156101f3578382906000526020600020906002020160405180604001604052908160008201805461015890610f34565b80601f016020809104026020016040519081016040528092919081815260200182805461018490610f34565b80156101d15780601f106101a6576101008083540402835291602001916101d1565b820191906000526020600020905b8154815290600101906020018083116101b457829003601f168201915b5050505050815260200160018201548152505081526020019060010190610125565b50505050905090565b6000471161023f576040517f08c379a000000000000000000000000000000000000000000000000000000000815260040161023690610fc2565b60405180910390fd5b60008054906101000a900473ffffffffffffffffffffffffffffffffffffffff1673ffffffffffffffffffffffffffffffffffffffff166108fc479081150290604051600060405180830381858888f193505050501580156102a5573d6000803e3d6000fd5b50565b60606001805480602002602001604051908101604052809291908181526020016000905b8282101561051457838290600052602060002090600502016040518060a00160405290816000820160009054906101000a900473ffffffffffffffffffffffffffffffffffffffff1673ffffffffffffffffffffffffffffffffffffffff1673ffffffffffffffffffffffffffffffffffffffff1681526020016001820154815260200160028201805461035f90610f34565b80601f016020809104026020016040519081016040528092919081815260200182805461038b90610f34565b80156103d85780601f106103ad576101008083540402835291602001916103d8565b820191906000526020600020905b8154815290600101906020018083116103bb57829003601f168201915b505050505081526020016003820180546103f190610f34565b80601f016020809104026020016040519081016040528092919081815260200182805461041d90610f34565b801561046a5780601f1061043f5761010080835404028352916020019161046a565b820191906000526020600020905b81548152906001019060200180831161044d57829003601f168201915b5050505050815260200160048201805461048390610f34565b80601f01602080910402602001604051908101604052809291908181526020018280546104af90610f34565b80156104fc5780601f106104d1576101008083540402835291602001916104fc565b820191906000526020600020905b8154815290600101906020018083116104df57829003601f168201915b505050505081525050815260200190600101906102cc565b50505050905090565b60008054906101000a900473ffffffffffffffffffffffffffffffffffffffff1673ffffffffffffffffffffffffffffffffffffffff163373ffffffffffffffffffffffffffffffffffffffff16146105ab576040517f08c379a00000000000000000000000000000000000000000000000000000000081526004016105a29061102e565b60405180910390fd5b60026040518060400160405280848152602001838152509080600181540180825580915050600190039060005260206000209060020201600090919091909150600082015181600001908161060091906111fa565b506020820151816001015550507f41bd442cdb2a27c09038cffd7613d507e150095ac03cf8d0d6bb891718413507828260405161063e929190611314565b60405180910390a15050565b6002805490508110610691576040517f08c379a000000000000000000000000000000000000000000000000000000000815260040161068890611390565b60405180910390fd5b600034116106d4576040517f08c379a00000000000000000000000000000000000000000000000000000000081526004016106cb906113fc565b60405180910390fd5b600081111561070f5734600282815481106106f2576106f161141c565b5b9060005260206000209060020201600101541461070e57600080fd5b5b60016040518060a001604052803373ffffffffffffffffffffffffffffffffffffffff1681526020014281526020018581526020018481526020016002848154811061075e5761075d61141c565b5b9060005260206000209060020201600001805461077a90610f34565b80601f01602080910402602001604051908101604052809291908181526020018280546107a690610f34565b80156107f35780601f106107c8576101008083540402835291602001916107f3565b820191906000526020600020905b8154815290600101906020018083116107d657829003601f168201915b5050505050815250908060018154018082558091505060019003906000526020600020906005020160009091909190915060008201518160000160006101000a81548173ffffffffffffffffffffffffffffffffffffffff021916908373ffffffffffffffffffffffffffffffffffffffff16021790555060208201518160010155604082015181600201908161088a91906111fa565b5060608201518160030190816108a091906111fa565b5060808201518160040190816108b691906111fa565b5050503373ffffffffffffffffffffffffffffffffffffffff167f278e362bfd6af0951b595e6b22ce136796546ae06428ae7bd4eb4921eb991c62428585600286815481106109085761090761141c565b5b906000526020600020906002020160000160405161092994939291906114cf565b60405180910390a2505050565b600081519050919050565b600082825260208201905092915050565b6000819050602082019050919050565b600081519050919050565b600082825260208201905092915050565b60005b8381101561099c578082015181840152602081019050610981565b60008484015250505050565b6000601f19601f8301169050919050565b60006109c482610962565b6109ce818561096d565b93506109de81856020860161097e565b6109e7816109a8565b840191505092915050565b6000819050919050565b610a05816109f2565b82525050565b60006040830160008301518482036000860152610a2882826109b9565b9150506020830151610a3d60208601826109fc565b508091505092915050565b6000610a548383610a0b565b905092915050565b6000602082019050919050565b6000610a7482610936565b610a7e8185610941565b935083602082028501610a9085610952565b8060005b85811015610acc5784840389528151610aad8582610a48565b9450610ab883610a5c565b925060208a01995050600181019050610a94565b50829750879550505050505092915050565b60006020820190508181036000830152610af88184610a69565b905092915050565b600081519050919050565b600082825260208201905092915050565b6000819050602082019050919050565b600073ffffffffffffffffffffffffffffffffffffffff82169050919050565b6000610b5782610b2c565b9050919050565b610b6781610b4c565b82525050565b600060a083016000830151610b856000860182610b5e565b506020830151610b9860208601826109fc565b5060408301518482036040860152610bb082826109b9565b91505060608301518482036060860152610bca82826109b9565b91505060808301518482036080860152610be482826109b9565b9150508091505092915050565b6000610bfd8383610b6d565b905092915050565b6000602082019050919050565b6000610c1d82610b00565b610c278185610b0b565b935083602082028501610c3985610b1c565b8060005b85811015610c755784840389528151610c568582610bf1565b9450610c6183610c05565b925060208a01995050600181019050610c3d565b50829750879550505050505092915050565b60006020820190508181036000830152610ca18184610c12565b905092915050565b6000604051905090565b600080fd5b600080fd5b600080fd5b600080fd5b7f4e487b7100000000000000000000000000000000000000000000000000000000600052604160045260246000fd5b610cff826109a8565b810181811067ffffffffffffffff82111715610d1e57610d1d610cc7565b5b80604052505050565b6000610d31610ca9565b9050610d3d8282610cf6565b919050565b600067ffffffffffffffff821115610d5d57610d5c610cc7565b5b610d66826109a8565b9050602081019050919050565b82818337600083830152505050565b6000610d95610d9084610d42565b610d27565b905082815260208101848484011115610db157610db0610cc2565b5b610dbc848285610d73565b509392505050565b600082601f830112610dd957610dd8610cbd565b5b8135610de9848260208601610d82565b91505092915050565b610dfb816109f2565b8114610e0657600080fd5b50565b600081359050610e1881610df2565b92915050565b60008060408385031215610e3557610e34610cb3565b5b600083013567ffffffffffffffff811115610e5357610e52610cb8565b5b610e5f85828601610dc4565b9250506020610e7085828601610e09565b9150509250929050565b600080600060608486031215610e9357610e92610cb3565b5b600084013567ffffffffffffffff811115610eb157610eb0610cb8565b5b610ebd86828701610dc4565b935050602084013567ffffffffffffffff811115610ede57610edd610cb8565b5b610eea86828701610dc4565b9250506040610efb86828701610e09565b9150509250925092565b7f4e487b7100000000000000000000000000000000000000000000000000000000600052602260045260246000fd5b60006002820490506001821680610f4c57607f821691505b602082108103610f5f57610f5e610f05565b5b50919050565b600082825260208201905092915050565b7f43616e6e6f74207472616e73666572206e696c2062616c616e63652e00000000600082015250565b6000610fac601c83610f65565b9150610fb782610f76565b602082019050919050565b60006020820190508181036000830152610fdb81610f9f565b9050919050565b7f4f6e6c79206f776e65722063616e2061646420612067726f636572792e000000600082015250565b6000611018601d83610f65565b915061102382610fe2565b602082019050919050565b600060208201905081810360008301526110478161100b565b9050919050565b60008190508160005260206000209050919050565b60006020601f8301049050919050565b600082821b905092915050565b6000600883026110b07fffffffffffffffffffffffffffffffffffffffffffffffffffffffffffffffff82611073565b6110ba8683611073565b95508019841693508086168417925050509392505050565b6000819050919050565b60006110f76110f26110ed846109f2565b6110d2565b6109f2565b9050919050565b6000819050919050565b611111836110dc565b61112561111d826110fe565b848454611080565b825550505050565b600090565b61113a61112d565b611145818484611108565b505050565b5b818110156111695761115e600082611132565b60018101905061114b565b5050565b601f8211156111ae5761117f8161104e565b61118884611063565b81016020851015611197578190505b6111ab6111a385611063565b83018261114a565b50505b505050565b600082821c905092915050565b60006111d1600019846008026111b3565b1980831691505092915050565b60006111ea83836111c0565b9150826002028217905092915050565b61120382610962565b67ffffffffffffffff81111561121c5761121b610cc7565b5b6112268254610f34565b61123182828561116d565b600060209050601f8311600181146112645760008415611252578287015190505b61125c85826111de565b8655506112c4565b601f1984166112728661104e565b60005b8281101561129a57848901518255600182019150602085019450602081019050611275565b868310156112b757848901516112b3601f8916826111c0565b8355505b6001600288020188555050505b505050505050565b60006112d782610962565b6112e18185610f65565b93506112f181856020860161097e565b6112fa816109a8565b840191505092915050565b61130e816109f2565b82525050565b6000604082019050818103600083015261132e81856112cc565b905061133d6020830184611305565b9392505050565b7f506c656173652073656c6563742061206c65676974206f7074696f6e21000000600082015250565b600061137a601d83610f65565b915061138582611344565b602082019050919050565b600060208201905081810360008301526113a98161136d565b9050919050565b7f4865792c20796f752063616e2774207472616e73666572207a65726f21000000600082015250565b60006113e6601d83610f65565b91506113f1826113b0565b602082019050919050565b60006020820190508181036000830152611415816113d9565b9050919050565b7f4e487b7100000000000000000000000000000000000000000000000000000000600052603260045260246000fd5b6000815461145881610f34565b6114628186610f65565b9450600182166000811461147d5760018114611493576114c6565b60ff1983168652811515602002860193506114c6565b61149c8561104e565b60005b838110156114be5781548189015260018201915060208101905061149f565b808801955050505b50505092915050565b60006080820190506114e46000830187611305565b81810360208301526114f681866112cc565b9050818103604083015261150a81856112cc565b9050818103606083015261151e818461144b565b90509594505050505056fea26469706673582212200d32bbceca6b16b1a0c3c00100350e27c706723d797d409035618a4bd6ba2e8b64736f6c63430008110033",
  "linkReferences": {},
  "deployedLinkReferences": {}
}